:100000000C9434000C9446000C9446000C9446006A
:100010000C9446000C9446000C9446000C94460048
:100020000C9446000C9446000C9446000C947F00FF
:100030000C9446000C9446000C9446000C94460028
:100040000C9446000C9446000C9446000C94460018
:100050000C9446000C9446000C9446000C94460008
:100060000C9446000C94460011241FBECFEFD8E03C
:10007000DEBFCDBF21E0A0E0B1E001C01D92A23003
:10008000B207E1F70E948D000C9494000C940000DC
:100090009C01529A5A9880918100886080938100D7
:1000A0008091810084608093810082E19AE7223010
:1000B000310529F0B8F4232BF9F482EE94E0909303
:1000C00001018093000180910001909101019093C2
:1000D00089008093880080916F00826080936F0018
:1000E0007894089584E294EF2330310541F388E455
:1000F00098EE2430310519F38AE698E1E0CF8F932A
:100100008FB78F939F938BB194E089278BB99F9181
:100110008F918FBF8F911895089582E090E00E9493
:0C01200048000E948C00FFCFF894FFCF35
:00000001FF
