:100000000C9434000C9446000C9446000C9446006A
:100010000C9446000C9446000C9446000C94460048
:100020000C9446000C9446000C9446000C9453012A
:100030000C9446000C9446000C9446000C94460028
:100040000C9446000C9446000C9446000C94460018
:100050000C9446000C9446000C9446000C94460008
:100060000C9446000C94460011241FBECFEFD8E03C
:10007000DEBFCDBF21E0A0E0B1E001C01D92A730FE
:10008000B207E1F70E9498010C94A6010C940000BD
:100090009B018E3008F0EFC0E82FF0E0E855FE4FEE
:1000A0000C94A0018AE290E09093030180930201F6
:1000B0008BE290E090930501809304011092060179
:1000C000E0910201F091030140815091060181E02D
:1000D00090E0BC0101C0660F5A95EAF7462B4083B9
:1000E000E0910401F091050140815091060101C0A9
:1000F000880F5A95EAF780958423808310928000B8
:1001000010928100809181008860809381008091AD
:10011000810085608093810085E89EE12230310571
:1001200039F008F0B1C0232B09F0BAC088E391E0A0
:100130009093010180930001809100019091010151
:10014000909389008093880080916F008D7F8093C9
:100150006F0008958AE290E090930301809302017A
:100160008BE290E0909305018093040181E045C00B
:100170008AE290E090930301809302018BE290E089
:10018000909305018093040182E037C08AE290E0F9
:1001900090930301809302018BE290E0909305011C
:1001A0008093040183E029C08AE290E090930301E8
:1001B000809302018BE290E090930501809304010B
:1001C00084E01BC08AE290E09093030180930201D7
:1001D0008BE290E0909305018093040185E00DC0CF
:1001E0008AE290E090930301809302018BE290E019
:1001F000909305018093040186E08093060160CF0F
:100200008AE290E090930301809302018BE290E0F8
:10021000909305018093040187E0EFCF84E290E0A2
:10022000909303018093020185E290E043CF84E242
:1002300090E0909303018093020185E290E092CFD9
:1002400084E290E0909303018093020185E290E0C4
:1002500097CF84E290E0909303018093020185E2BE
:1002600090E09CCF84E290E09093030180930201A0
:1002700085E290E0A1CF84E290E090930301809327
:10028000020185E290E0A6CF89E09DE323303105AD
:1002900009F44ECF82E19AE72430310509F448CFC2
:1002A0008BE196E045CF2F932FB72F933F938F93FA
:1002B0009F93AF93BF93EF93FF93A2E0B1E01296A9
:1002C000ED91FC911397808114969C9121E030E090
:1002D00001C0220F9A95EAF782278083FF91EF9160
:1002E000BF91AF919F918F913F912F912FBF2F91F0
:1002F0001895EFE6F0E0808182608083789408951D
:10030000EFE6F0E080818D7F8083A2E0B1E012967D
:10031000ED91FC911397208114963C9181E090E03F
:1003200001C0880F3A95EAF780958223808308956B
:1003300062E070E087E00E9448000E947901FFCFF0
:10034000EE0FFF1F0590F491E02D0994F894FFCF74
:100350005200AA00B800C600D400E200F00000017C
:0C0360000E0117012001290132013B01B0
:00000001FF
